:020000040000FA
:1000000020020020F100000017010000D5000000D0
:1000100000000000000000000000000000000000E0
:100020000000000000000000000000001B010000B4
:1000300000000000000000001D0100001F01000082
:100040002101000021010000210100002101000028
:100050002101000021010000210100002101000018
:1000600021010000150B000021010000210100000A
:100070008D0B000021010000210100002101000082
:1000800021010000210100002101000021010000E8
:1000900021010000210100002101000021010000D8
:1000A00021010000210100002101000021010000C8
:1000B00021010000210100002101000021010000B8
:1000C0000348854600F09AF8004800472D150000C7
:1000D0002002002004207146084202D0EFF309807C
:1000E00001E0EFF308807146004A1047290600003E
:1000F0000C480D4901600D4901600D4901600D4A30
:100100000D4911600D4A0E491160002101600D4832
:1001100080470D480047FEE7FEE7FEE7FEE7FEE703
:10012000FEE700000001004059000000160000003A
:100130008800000024000040A55A00008002004012
:1001400001000000F9090000C100000030B50B46B5
:10015000014600202022012409E00D46D5409D42A1
:1001600005D31D469540491B254695404019154627
:10017000521E002DF1DC30BD03460B439B0703D01C
:1001800009E008C9121F08C0042AFAD203E00B785C
:100190000370401C491C521EF9D27047F0B51FB4C1
:1001A0000646002082B005464024019100901BE0E5
:1001B000019922460F46304600F042F8049A059B0A
:1001C000801A994110D310461946224600F028F8AB
:1001D000361A8F410197224601200021009F00F02E
:1001E0001FF838184D4100902046641E0028DFDCBF
:1001F000019B00982946324607B0F0BD064C012508
:10020000064E05E0E36807CC2B430C3C98471034BE
:10021000B442F7D3FFF758FFAC1A0000CC1A000025
:1002200010B5202A04DB0146203A9140002010BD81
:10023000914020239C1A0346E3401943904010BD8F
:1002400010B5202A04DB0846203AD040002110BD1A
:100250000B46D340D0402024A21A914008431946AF
:1002600010BD00000EB509490EC900910192810F21
:100270008A00029369468A58054951184A68C3069C
:10028000DB0E0120984002434A600EBD3417000087
:100290000002004002490A6802430A6070470000F9
:1002A0000002004010B500F05DFB0148006810BD81
:1002B0000000002002480068C00700D001487047D5
:1002C000000200400048E80104480068800702D5A9
:1002D0000120C0037047002070470000000200406A
:1002E00010B500F03FFB0448406B41070348490F3D
:1002F0000068C84010BD000000020040000000205F
:1003000010B500F02FFB0448406B4006410F034836
:100310000068C84010BD000000020040000000203E
:1003200008B511A000681149009009680020052255
:100330001204114216D1080301D50D4800E00D4802
:100340008A030FD40A04920F6B469B5CCA0589048A
:10035000D20DC90E891C8008921C59435043FFF7E7
:10036000F5FE800008BD00000102020440020040CA
:10037000001BB7000048E801F3B5124881B00569D9
:100380000F4610200F4C0540403C206804263043A7
:100390002060102000F050F82069072108432061F8
:1003A000206A0009000138432062206988430199CE
:1003B0000843206100F0D6FA002D02D12068B04336
:1003C0002060FEBD40020040F0B5194B88B0F0CB74
:1003D000009401ACE0C478CB04AF78C7840A23064C
:1003E0001B0E0ED003039B0F9B0004ADEB58114D69
:1003F0005B19E5B28405E40EA5401C68AC431443C8
:100400001C60420E520710D08200920F92006B4681
:100410009A58084B103BD21803015B0FC001C00E65
:100420008340106898430843106008B0F0BD000096
:10043000141700002002004010B504460749084B7D
:1004400005E00A46491E002A01DC002010BD1A6999
:1004500020469043F5D1012010BD000080F520001A
:1004600040020040024801684908490001607047A5
:1004700000C0004010B5FFF7F5FF024900200860FA
:1004800010BD00000001004010B500F04DFA00F072
:1004900047F810BD0246012100B5002049058A42F7
:1004A00002D100F017F800BD09492223CB604A6051
:1004B00001220A610A69D207FCD10A685206F2D504
:1004C00008684022104308600020C04300BD0000BF
:1004D00000C0004000200B492222CA6001225205C0
:1004E0004A60094A8A6001220A610A69D207FCD17E
:1004F0000A68520605D508684022104308600020AB
:10050000C043704700C0004003AA550003490020C3
:100510000968890700D501207047000000C000402D
:1005200002480168012211430160704700C0004089
:1005300005490022CA604860012008610869C007B7
:10054000FCD188687047000000C0004030B5044608
:1005500003200B4600250005FFF7EAFF2060032B70
:1005600001D96D1E0CE0012B03D90648FFF7E0FF0F
:100570006060022B04D90348001DFFF7D9FFA0607B
:10058000284630BD04003000054A2123D360506066
:100590009160012010611069C007FCD17047000014
:1005A00000C00040F3B50646002081B0044600902C
:1005B00011E0A50003200005281871590746FFF730
:1005C000E3FF3846FFF7B4FF7159884202D000209C
:1005D000C0430090641C02988442EAD30098FEBD98
:1005E00010B5064C01229103204600F009F80122C3
:1005F000D103204600F004F810BD00004040004048
:10060000F0B5002301273C469C400C4208D0056809
:100610005C000326A640B5431646A6403543056058
:100620005B1C102BEFD3F0BD044603A000F05AFC76
:10063000204601F003F8FEE7496E2048617264200D
:100640004661756C742048616E646C65720A0000C6
:1006500002488069C000C00F7047000000000740DA
:1006600010B5114911A000F03DFCFFF7F1FF002883
:10067000FBD000F071FFFFF707FF0121890310484D
:100680002E22C26041600121016101690029FCD173
:1006900000F036F9FFF7EEFE0120800700E030BFE2
:1006A00001680029FBD110BDDF170000626F6F7475
:1006B000206C6F61646572203A2025730D0A00007A
:1006C00000C0004010B5094800F00CFC08A000F084
:1006D00009FC15A000F006FC214800F003FC2148AD
:1006E00000F000FC204800F067FE10BDB8180000C4
:1006F000626F6F74206C6F61646572203E3E3E3E97
:100700003E207072652D70726F67616D6D6D696EE0
:1007100067204150505F303120746F203078313085
:100720003030300D0A000000626F6F74206C6F6112
:10073000646572203E3E3E3E3E207072652D7072B2
:100740006F67616D6D6D696E67204150505F30322B
:1007500020746F20307831323030300D0A000000C4
:10076000201800006C18000010000020BFF34F8F0D
:1007700004490348C860BFF34F8F00BFFDE7000086
:100780000400FA0500ED00E070B51FA000F0AAFB20
:100790002D4800F0A7FB2D4800F0A4FBFFF7B6FEA4
:1007A00002462B492BA000F09DFB304C0B20E06053
:1007B00000206060012525612069C007FCD1A16887
:1007C0002B4800F08FFB0C20E06004206060256166
:1007D0002069C007FCD1A168264800F083FB0320F4
:1007E0000005FFF7A5FE0146234800F07BFB2348E8
:1007F000FFF79EFE0146224800F074FBFFF728FF3A
:100800000028FBD070BD0000626F6F74206C6F61B8
:10081000646572203E3E3E3E3E206D616B652073F6
:1008200075726520434F4E464947207365742061B9
:1008300073205B4150524F4D2077697468204941C5
:10084000505D0D0A000000000C1900005419000052
:10085000B4170000626F6F74206C6F616465722062
:100860003A202573203A2025640D0A0000C000407C
:10087000681A0000241A00009C19000004003000CF
:10088000E019000010B500F04FF80520FFF702FD59
:100890001120FFF7D1FD0A20FFF7FCFC0A20FFF72B
:1008A000CBFD00210720FFF767FD124C2046FFF724
:1008B000D9FC0321002209062046FFF785FD0E4CD6
:1008C0002046FFF7CFFC0721002209032046FFF74F
:1008D0007BFD01208007C16BFF221204914333226C
:1008E00052048918C16300F03DF8044900200860F3
:1008F00010BD0000103D805F0300C05E000100409D
:100900000120800781680222114381607047012124
:10091000020E890751188B680122824013438B60B5
:10092000886890438860704710B5592104481622A2
:1009300088230160026003600468002CF9D010BDB8
:100940000001004006498A691202FCD40A2804D139
:100950000D220A608A691202FCD408607047000008
:1009600000000740F8B51D4D28691C4944071CA02C
:1009700000680090640F00204031096805221204CD
:10098000114216D1080301D5164800E016488A0323
:100990000FD40A04920F6B469B5CCA058904D20DE2
:1009A000C90E891C8008921C59435043FFF7CEFBA7
:1009B00080000E4E022CB06002D00D49A0000858F5
:1009C000296A0907090F491CFFF7C0FB0949306074
:1009D0004A108018FFF7BAFB7060F8BD00020040B3
:1009E00001020204001BB7000048E80100000020DB
:1009F000F416000040420F0010B559210A48162392
:100A000088220160036002600468002CF9D0074965
:100A10000B680722120593430B600B6813430B60AE
:100A20000021016010BD00000001004000020040F4
:100A300010B50A4C7D220121D200C906204600F0E3
:100A400049F8206821060843206008150449086019
:100A5000206889050843206010BD00002000054083
:100A600000E100E010B588B0044620221549684630
:100A7000FFF782FB144B144A14482033944202D1EE
:100A80004069000A0BE09C4202D14069000B06E07D
:100A90000F4940698C4201D1000C00E0000D410774
:100AA000490F022904D088006946085808B010BDD3
:100AB000944201D09C4202D1FFF712FCF6E7FFF707
:100AC0001FFCF3E74C170000000005400002004047
:100AD00000100540F7B517460646FFF7C3FF054669
:100AE00000244008B84201D8022008E039462846D0
:100AF000FFF72CFB040E02D0611CFFF727FB0199C6
:100B0000214331607060641C604301462846FFF752
:100B10001DFBFEBD70B511488168C907C90F1BD008
:100B20000125856000F0DEFD0D4C0E496068FFF781
:100B30000DFB002906D1A2680B49501CA0600BA038
:100B400000F0D0F9FA216068FFF700FB002903D11B
:100B50000D49886B6840886370BD00002000054027
:100B600014000020102700000E180000626F6F7440
:100B7000206C6F61646572203A202573203A20252D
:100B800034640D0A000000004048004010B50B4CD2
:100B9000E06911210902084202D104E000F066F97F
:100BA000A1694904FAD5A16920467122114203D0F6
:100BB0000921890200F0A0F810BD000000000740E4
:100BC00010B51848FFF7A3FE174CE1214902204653
:100BD00000F0B2F81121204600F0AAF801201349D4
:100BE00000030860FFF75EFB014611A000F07AF9F0
:100BF000FFF760FB014618A000F074F9FFF764FBF3
:100C000001461FA000F06EF9FFF76AFB014626A01F
:100C100000F068F9FFF774FB01462DA000F062F9BF
:100C200010BD0000100000040000074000E100E0DB
:100C30000D0A626F6F74206C6F61646572203A20D8
:100C4000434C4B5F47657443505546726571203A7B
:100C5000202538640D0A0000626F6F74206C6F618C
:100C6000646572203A20434C4B5F47657448585482
:100C700046726571203A202538640D0A0000000094
:100C8000626F6F74206C6F61646572203A20434C10
:100C90004B5F4765744C585446726571203A202565
:100CA00038640D0A00000000626F6F74206C6F6181
:100CB000646572203A20434C4B5F47657450434C47
:100CC0004B3046726571203A202538640D0A0000C9
:100CD000626F6F74206C6F61646572203A20434CC0
:100CE0004B5F47657450434C4B3146726571203AF7
:100CF000202538640D0A0000CA0102D50122120421
:100D0000C2614A0503D570228261082282610A0508
:100D100003D5426901231A4342618A0401D5034A7B
:100D20008261490401D51F2141647047010000011F
:100D300042680A4342607047F0B587B00F460446E8
:100D400000252E4618223E496846FFF715FA3D4910
:100D50003D483E4A8C4204D14369006A5B015D0F05
:100D60001FE03B4B9C4204D14369006A5B005D0F6E
:100D700022E0944204D1C369006B5B015D0F11E076
:100D8000344B9C4206D1C369006B5B005D0F0006CB
:100D9000060F13E0304B9C4207D1C369006B5B0325
:100DA0005D0F000A0607360F08E02C4B9C4205D168
:100DB000C369006B5B025D0F0004060F0020206317
:100DC0000320E060A068264B1840A060012D02D0EF
:100DD000042D04D013E0FFF7A3FA01900FE08C423A
:100DE00007D0944205D01C48844202D01D4884425A
:100DF00002D1FFF775FA01E0FFF782FA0490002FA5
:100E00001BD0A90068464058711CFFF79FF90546A2
:100E1000790840183946FFF799F91349801E88422E
:100E200007D9F90068183946FFF790F90009801EC4
:100E300002E0032109070843606207B0F0BD00002B
:100E40006C1700000000074000020040002007402F
:100E500000100740003007400040074000500740A6
:100E60000FFFF0FF00600740FFFF000010B51548BE
:100E70000068C0B2782817D0582815D07F2803D929
:100E800011A000F02FF810BD5A280DD008DC13492E
:100E9000134A31280AD032280CD05828F3D103E065
:100EA000782801D07A28EED1FFF760FC01200B46AC
:100EB000000402E009200B46400300F081FAFFF72E
:100EC000CFFB10BD00000740696E76616C6964203D
:100ED000636F6D6D616E640D0A00000000200000FC
:100EE000004000000FB410B503A9044B044A029857
:100EF00000F018F810BC08BC04B01847AD1300008F
:100F00000C00002002E008C8121F08C1002AFAD114
:100F100070477047002001E001C1121F002AFBD179
:100F200070470000FFB591B00F460546002606E069
:100F300025280AD0149A139990476D1C761C28789E
:100F40000028F5D1304615B0F0BD002400940121F1
:100F5000F34A029400E004436D1C2B780846203BC2
:100F600098401042F7D128782A280ED002212878FC
:100F70000246303A092A15D8009A0A235A43303AD1
:100F800080180C436D1C0090F1E701CF0090002801
:100F900005DA0120400304430098404200900220FB
:100FA00004436D1C28782E2815D10420044368784A
:100FB0006D1C2A280AD101CF6D1C02900BE002990A
:100FC0000A225143303940186D1C0290287801469E
:100FD00030390929F3D928786C2810D006DC4C2840
:100FE0001AD068280ED06A2817D104E0742813D0CC
:100FF0007A2812D110E00120400504430CE00121C1
:10100000090501E0032109050C436978814203D1F8
:101010000120000524186D1C6D1C287803906E2893
:101020001ED00CDC632831D004DC00288AD058287C
:1010300011D1B2E064287BD069280CD178E0732804
:101040002DD004DC6F2870D0702804D1A7E075285B
:101050006CD078286BD0149A13999047761C62E074
:101060006002400F022807D003280AD004283868FD
:101070000AD006603F1D56E03868F11706604160EF
:10108000F8E738680680F5E70670F3E738786946D0
:1010900008740020487404A80390012003E0386815
:1010A00003900020C0433F1D61070FD5002101E0E0
:1010B0000199491C029A0191914213DA8142F7DBAE
:1010C000019A0399895C0029F2D10BE0002101E02B
:1010D0000199491C01918142FADB019A0399895CCB
:1010E0000029F5D101990098139A401A00902146E1
:1010F000149B00F03BF901998019461807E003980A
:1011000003990078491C0391149A13999047019808
:10111000401E0190401CF2D12146149B139A009866
:1011200000F014F986196D1C09E741E033E034E062
:101130000A200021049005916002410F022905D088
:1011400001CFC2179446032905D007E0FF1DFF0811
:10115000FF0003CF06E000B2C2179446042902D173
:1011600040B2C1178C4600226146944506DA0A4611
:101170000021404291418C462D2102E0210504D5F9
:101180002B216A461176012103E0E10701D02021DD
:10119000F7E7019154E00A200BE0102009E010204D
:1011A000049000210420044308200591029003E0EC
:1011B00008200021059104906002410F022905D00A
:1011C00001CF00229446032906D006E0FF1DFF0848
:1011D000FF0003CF8C4603E080B2042900D1C0B2E7
:1011E0000021019121072BD50399702906D0049A7B
:1011F0001021059B4A401A4305D00EE040216A4663
:101200001176012108E06146014306D030216A468B
:1012100011760399517602210191049A0821059BC8
:101220004A401A430CD16146014301D1610707D5F9
:1012300030216A461176012101910299491E0291DD
:101240000399582904D037A103910FA90F910DE0FC
:1012500039A1F9E76146059B049AFEF79FFF039BBE
:101260008C469B5C0F9A521E0F921370614601438D
:10127000F0D10F9807A9081A20300390600704D511
:10128000012000048443029801E0012002900399A8
:10129000884201DD401A00E00020411802900198C8
:1012A00009180098401A0090E00306D42146149BC8
:1012B000139A009800F05AF886190020049008E06C
:1012C00006A9085C149A139990470498401C761C50
:1012D000049001998842F3DBE0030CD52146149B6E
:1012E000139A009800F042F8861904E0149A30200E
:1012F00013999047761C0299481E02900029F5DC4C
:1013000008E00F980F990078491C0F91149A1399CF
:101310009047761C0399481E03900029F1DCFBE6F8
:1013200009280100303132333435363738396162BB
:10133000636465660000000030313233343536377F
:10134000383941424344454600000000F8B50446A0
:1013500000251E461746880404D405E0394620209F
:10136000B0476D1C641EF9D52846F8BDFFB504468C
:10137000002581B01E46C80301D5302700E0202794
:10138000880404D505E038460399B0476D1C641EF7
:10139000F9D5284605B0F0BD034881694904FCD45D
:1013A0000068C0B2704700000000074010B5044656
:1013B000FFF7C8FA204610BD10B5FFF7EDFF10BDCE
:1013C000FFB50546014681B01E462FA0FFF78AFDF6
:1013D00035A00399FFF786FDFFF756F8002713E0C5
:1013E0000398C0190090FFF755F8002438198008B9
:1013F0008000295800980019FFF7C6F80120400224
:10140000241D8442F2D33F18B742E9D331A0FFF73D
:1014100069FD002727E003980024C01900900019F7
:10142000FFF786F802463819810889006958914209
:101430000DD03819800880002B580398C019011965
:1014400028A0FFF74FFD0020C04305B0F0BDB0421B
:1014500006D201204002241D844201D20098DEE71A
:10146000FF37FF370237B742D5D328A0FFF73AFD41
:10147000284929A0FFF736FDFFF7EAF80028FBD03E
:10148000FEF7F8FF0020E0E7696D6167655F626164
:1014900073652061646472657373203078253258F7
:1014A0002E2E2E0D0A00000050726F6772616D20A3
:1014B000696D61676520746F20666C617368206177
:1014C0006464726573732030782532582E2E2E0D89
:1014D0000A0000004F4B2E0A566572696679202E6D
:1014E0002E2E000064617461206D69736D617463F8
:1014F00068206F6E20307825782C205B3078257836
:101500005D2C205B307825785D0A00004F4B2E0A59
:1015100000000000CB170000626F6F74206C6F61D9
:10152000646572203A2025730D0A0000FFF7AAF9BE
:10153000FFF746FBFFF754F8FFF77AFAFEF7A4FF30
:1015400000F042F8FFF720F900F018F8FEF792FFDC
:10155000FFF7B8F8FEE7000010B5012105480903C0
:101560000160C91001600C20FFF7D1F90248FFF7B4
:10157000CEF910BD80E100E0030000040D48416891
:101580000422114341600C480168012211430160AB
:101590000168082211430160084801680848414376
:1015A00008484161002181610169052211430161FF
:1015B000704700000002004000C00040040000200E
:1015C000E093040000E000E01CB502216846FEF74D
:1015D000BDFF002805DA0DA0FFF784FC0020C04302
:1015E0001CBD009840060FD5134801681022114316
:1015F0000160009840218843009002216846FEF770
:10160000D1FF01208107886000201CBD0A626F6F36
:1016100074206C6F61646572203A205265616420A9
:101620005573657220436F6E666967206661696CE9
:101630006564210A0000000000C0004010B50446A7
:10164000016810A0FFF74EFC11A06168FFF74AFC8B
:1016500012A0A168FFF746FC13A0E168FFF742FC67
:1016600014A02169FFF73EFC15A06169FFF73AFC61
:1016700016A0A169FFF736FC17A0E169FFF732FC5D
:1016800010BD0000723020203D20307825780A00FF
:10169000723120203D20307825780A0072322020D7
:1016A0003D20307825780A00723320203D203078A4
:1016B00025780A00723132203D20307825780A00E2
:1016C0006C7220203D20307825780A00706320203D
:1016D0003D20307825780A00707372203D203078E4
:1016E00025780A0002484168491C416070470000A3
:1016F000140000200048E8010080000000D8B80570
:1017000000960000006CDC020000000000000000F9
:10171000006CDC0200000000040000000800000073
:101720000C000000000000000000000000000000AD
:10173000100000000000000004000000080000008D
:101740000000000004000000080000000048E8015C
:101750000080000000000000000000000000000009
:101760000096000000000000006CDC020048E80168
:101770000000000000800000006CDC02000000009F
:10178000009600000048E801000000000080000012
:10179000006CDC0200000000009600000048E80138
:1017A0000000000000800000006CDC02000000006F
:1017B00000960000526561645F425300636F6D7074
:1017C0006172655F627566666572006C6F61645F09
:1017D000696D6167655F746F5F666C617368004A0D
:1017E000756D705F546F5F4170706C69636174698F
:1017F0006F6E00436865636B5F69665F46575F7530
:1018000070646174655F54696D654F757400544D03
:1018100052315F49525148616E646C65720000003C
:10182000626F6F74206C6F61646572203A205B3167
:101830005D202C20757064617465204150505F30CC
:101840003120746F20307834303030202C20202824
:101850004150505F30312073746F726520696E2083
:1018600030783130303030290D0A0000626F6F74EB
:10187000206C6F61646572203A205B325D202C2001
:10188000757064617465204150505F303220746F10
:1018900020307834303030202C20284150505F30B8
:1018A000322073746F726520696E20307831323067
:1018B0003030290D0A000000626F6F74206C6F6178
:1018C000646572203A2073656C656374696F6E207D
:1018D0006F7074696F6E20746F206D616E75616CCE
:1018E00020757064617465206669726D77617265D8
:1018F000206F72206A756D7020746F206170706C3B
:1019000069636174696F6E2E0D0A0000626F6F74F7
:10191000206C6F61646572203E3E3E3E3E20415029
:10192000505F303120696E204B45494C206C696E08
:101930006B6572206F7074696F6E20522F4F20623A
:10194000617365203A307830303030343030300DCB
:101950000A000000626F6F74206C6F616465722012
:101960003E3E3E3E3E204150505F303220696E2068
:101970004B45494C206C696E6B6572206F707469C1
:101980006F6E20522F4F2062617365203A3078309D
:10199000303030343030300D0A000000626F6F7428
:1019A000206C6F61646572203A2055736572204324
:1019B0006F6E6669672030202E2E2E2E2E2E2E2E34
:1019C0002E2E2E2E2E2E2E2E2E2E2E2E2E2E2E2E37
:1019D0002E205B3078253038585D0D0A000000005D
:1019E000626F6F74206C6F61646572203A2055736A
:1019F000657220436F6E6669672031202E2E2E2E71
:101A00002E2E2E2E2E2E2E2E2E2E2E2E2E2E2E2EF6
:101A10002E2E2E2E2E205B3078253038585D0D0A64
:101A200000000000626F6F74206C6F61646572204B
:101A30003A2050726F64756374204944202E2E2E14
:101A40002E2E2E2E2E2E2E2E2E2E2E2E2E2E2E2EB6
:101A50002E2E2E2E2E2E2E2E2E205B307825303838
:101A6000585D0D0A00000000626F6F74206C6F619A
:101A7000646572203A20436F6D70616E792049442D
:101A8000202E2E2E2E2E2E2E2E2E2E2E2E2E2E2E84
:101A90002E2E2E2E2E2E2E2E2E2E2E2E2E205B3045
:101AA00078253038585D0D0A00000000CC1A00007F
:101AB0000000002020000000040F0000EC1A0000CD
:101AC0002000002000020000140F000000D8B8051C
:101AD0006000000000D8B805000000000000000011
:0C1AE000000000000000000000000000FA
:04000005000000F106
:00000001FF
