:020000040000FA
:1040000020020020F140000017410000D5400000D0
:1040100000000000000000000000000000000000A0
:104020000000000000000000000000001B41000034
:1040300000000000000000001D4100001F410000C2
:1040400021410000214100002141000021410000E8
:1040500021410000214100002141000021410000D8
:1040600021410000194800002141000021410000C9
:10407000854800002141000021410000214100004D
:1040800021410000214100002141000021410000A8
:104090002141000021410000214100002141000098
:1040A0002141000021410000214100002141000088
:1040B0002141000021410000214100002141000078
:1040C0000348854600F09AF8004800474D5000002C
:1040D0002002002004207146084202D0EFF309803C
:1040E00001E0EFF308807146004A1047ED440000FC
:1040F0000C480D4901600D4901600D4901600D4AF0
:104100000D4911600D4A0E491160002101600D48F2
:1041100080470D480047FEE7FEE7FEE7FEE7FEE7C3
:10412000FEE70000000100405900000016000000FA
:104130008800000024000040A55A000080020040D2
:1041400001000000FD460000C140000030B50B46F4
:10415000014600202022012409E00D46D5409D4261
:1041600005D31D469540491B2546954040191546E7
:10417000521E002DF1DC30BD03460B439B0703D0DC
:1041800009E008C9121F08C0042AFAD203E00B781C
:104190000370401C491C521EF9D27047F0B51FB481
:1041A0000646002082B005464024019100901BE0A5
:1041B000019922460F46304600F042F8049A059BCA
:1041C000801A994110D310461946224600F028F86B
:1041D000361A8F410197224601200021009F00F0EE
:1041E0001FF838184D4100902046641E0028DFDC7F
:1041F000019B00982946324607B0F0BD064C0125C8
:10420000064E05E0E36807CC2B430C3C984710347E
:10421000B442F7D3FFF758FF30520000505200006D
:1042200010B5202A04DB0146203A9140002010BD41
:10423000914020239C1A0346E3401943904010BD4F
:1042400010B5202A04DB0846203AD040002110BDDA
:104250000B46D340D0402024A21A9140084319466F
:1042600010BD00000EB509490EC900910192810FE1
:104270008A00029369468A58054951184A68C3065C
:10428000DB0E0120984002434A600EBD7C510000C5
:104290000002004002490A6802430A6070470000B9
:1042A0000002004010B500F0DFF90148006810BDC1
:1042B0000000002002480068C00700D00148704795
:1042C000000200400048E80104480068800702D569
:1042D0000120C0037047002070470000000200402A
:1042E00010B500F0C1F90448406B41070348490F7D
:1042F0000068C84010BD000000020040000000201F
:1043000010B500F0B1F90448406B4006410F034876
:104310000068C84010BD00000002004000000020FE
:1043200008B511A000681149009009680020052215
:104330001204114216D1080301D50D4800E00D48C2
:104340008A030FD40A04920F6B469B5CCA0589044A
:10435000D20DC90E891C8008921C59435043FFF7A7
:10436000F5FE800008BD000001020204400200408A
:10437000001BB7000048E801F3B5124881B0056999
:104380000F4610200F4C0540403C20680426304367
:104390002060102000F050F82069072108432061B8
:1043A000206A00090001384320622069884301998E
:1043B0000843206100F058F9002D02D12068B04375
:1043C0002060FEBD40020040F0B5194B88B0F0CB34
:1043D000009401ACE0C478CB04AF78C7840A23060C
:1043E0001B0E0ED003039B0F9B0004ADEB58114D29
:1043F0005B19E5B28405E40EA5401C68AC43144388
:104400001C60420E520710D08200920F92006B4641
:104410009A58084B103BD21803015B0FC001C00E25
:104420008340106898430843106008B0F0BD000056
:104430005C5100002002004010B504460749084BBB
:1044400005E00A46491E002A01DC002010BD1A6959
:1044500020469043F5D1012010BD000080F52000DA
:104460004002004002480168490849000160704765
:1044700000C0004010B5FFF7F5FF024900200860BA
:1044800010BD00000001004010B500F0CFF800F0B2
:1044900001F810BD02480168012211430160704714
:1044A00000C0004010B5064C01229103204600F0E8
:1044B00009F80122D103204600F004F810BD0000E5
:1044C00040400040F0B5002301273C469C400C4290
:1044D00008D005685C000326A640B5431646A640F2
:1044E000354305605B1C102BEFD3F0BD044603A0E1
:1044F00000F04CFB204600F0C5FDFEE7496E204869
:10450000617264204661756C742048616E646C65EC
:10451000720A000002488069C000C00F70470000A6
:104520000000074010B5114911A000F02FFBFFF764
:10453000F1FF0028FBD000F093FDFFF7A5FF00215D
:1045400010482E22C26041600121016101690029E9
:10455000FCD100F057F8FFF78DFF0120800700E045
:1045600030BF01680029FBD110BD00000B520000D4
:104570006170706C69636174696F6E203A20257395
:104580000D0A000000C0004010B500F04FF80520F3
:10459000FFF780FE1120FFF74FFF0A20FFF77AFE9A
:1045A0000A20FFF749FF00210720FFF7E5FE124C24
:1045B0002046FFF757FE0321002209062046FFF799
:1045C00003FF0E4C2046FFF74DFE07210022090392
:1045D0002046FFF7F9FE01208007C16BFF2212047D
:1045E0009143332252048918C16300F03DF8044915
:1045F0000020086010BD0000103D805F0300C05E19
:10460000000100400120800781680222114381607F
:1046100070470121020E890751188B6801228240E0
:1046200013438B60886890438860704710B55921A8
:104630000448162288230160026003600468002C8D
:10464000F9D010BD0001004006498A691202FCD46D
:104650000A2804D10D220A608A691202FCD408607B
:104660007047000000000740F8B51D4D28691C493F
:1046700044071CA000680090640F002040310968C6
:1046800005221204114216D1080301D5164800E094
:1046900016488A030FD40A04920F6B469B5CCA0526
:1046A0008904D20DC90E891C8008921C59435043BD
:1046B000FFF74CFD80000E4E022CB06002D00D4979
:1046C000A0000858296A0907090F491CFFF73EFD99
:1046D000094930604A108018FFF738FD7060F8BD56
:1046E0000002004001020204001BB7000048E8017C
:1046F000000000203C51000040420F0010B559213D
:104700000A48162388220160036002600468002CB6
:10471000F9D007490B680722120593430B600B6819
:1047200013430B600021016010BD00000001004038
:104730000002004010B50A4C7D220121D200C906BA
:10474000204600F049F8206821060843206008153B
:1047500004490860206889050843206010BD0000F6
:104760002000054000E100E010B588B0044620229A
:1047700015496846FFF700FD144B144A14482033CE
:10478000944202D14069000A0BE09C4202D1406988
:10479000000B06E00F4940698C4201D1000C00E09B
:1047A000000D4107490F022904D0880069460858C6
:1047B00008B010BD944201D09C4202D1FFF790FD99
:1047C000F6E7FFF79DFDF3E7945100000000054078
:1047D0000002004000100540F7B517460646FFF7F7
:1047E000C3FF054600244008B84201D8022008E073
:1047F00039462846FFF7AAFC040E02D0611CFFF7D9
:10480000A5FC0199214331607060641C604301463E
:104810002846FFF79BFCFEBD70B511488168C907AB
:10482000C90F1CD00125856000F080FC0D4C7D2156
:10483000C9006068FFF78AFC002906D1A2680A490E
:10484000501CA06009A000F0A1F964216068FFF786
:104850007DFC002903D10A49886B6840886370BDDC
:1048600020000540100000201E5200004150505F03
:104870003032203A202573203A202534640D0A0076
:104880004048004010B50B4CE06911210902084274
:1048900002D104E000F044F9A1694904FAD5A16904
:1048A00020467122114203D00921890200F07EF8CE
:1048B00010BD00000000074010B51848FFF7A9FE22
:1048C000174CE1214902204600F090F811212046C2
:1048D00000F088F80120134900030860FFF7E2FCAC
:1048E000014611A000F052F9FFF7E4FC014615A0C3
:1048F00000F04CF9FFF7E8FC014618A000F046F97B
:10490000FFF7EEFC01461BA000F040F9FFF7F8FCB2
:1049100001461FA000F03AF910BD0000100000048D
:104920000000074000E100E00D0A434C4B5F476583
:104930007443505546726571203A202538640D0A3B
:1049400000000000434C4B5F476574485854467262
:104950006571203A202538640D0A0000434C4B5FF6
:104960004765744C585446726571203A2025386466
:104970000D0A0000434C4B5F47657450434C4B306D
:1049800046726571203A202538640D0A0000000047
:10499000434C4B5F47657450434C4B3146726571D5
:1049A000203A202538640D0A00000000CA0102D513
:1049B00001221204C2614A0503D5702282610822D5
:1049C00082610A0503D5426901231A4342618A04C0
:1049D00001D5034A8261490401D51F214164704712
:1049E0000100000142680A4342607047F0B587B099
:1049F0000F46044600252E4618223E496846FFF71A
:104A0000BBFB3D493D483E4A8C4204D14369006AA4
:104A10005B015D0F1FE03B4B9C4204D14369006A80
:104A20005B005D0F22E0944204D1C369006B5B011F
:104A30005D0F11E0344B9C4206D1C369006B5B00F3
:104A40005D0F0006060F13E0304B9C4207D1C3698F
:104A5000006B5B035D0F000A0607360F08E02C4B66
:104A60009C4205D1C369006B5B025D0F0004060F19
:104A7000002020630320E060A068264B1840A0605F
:104A8000012D02D0042D04D013E0FFF749FC019062
:104A90000FE08C4207D0944205D01C48844202D0DB
:104AA0001D48844202D1FFF71BFC01E0FFF728FC00
:104AB0000490002F1BD0A90068464058711CFFF7D6
:104AC00045FB0546790840183946FFF73FFB134977
:104AD000801E884207D9F90068183946FFF736FB6F
:104AE0000009801E02E0032109070843606207B045
:104AF000F0BD0000B451000000000740000200407B
:104B000000200740001007400030074000400740E9
:104B1000005007400FFFF0FF00600740FFFF00005C
:104B200010B512480068C0B2782807D0582805D0C0
:104B30007F280CD90EA000F029F810BDBFF34F8FCD
:104B400011491048C860BFF34F8F00BFFDE75A28D6
:104B500009D004DC3128F0D05828EED103E07828C1
:104B600001D07A28E9D1FFF7DDFC10BD0000074035
:104B7000696E76616C696420636F6D6D616E640D42
:104B80000A0000000400FA0500ED00E00FB410B5C3
:104B900003A9044B044A029800F018F810BC08BCA2
:104BA00004B01847415000000C00002002E008C883
:104BB000121F08C1002AFAD170477047002001E097
:104BC00001C1121F002AFBD170470000FFB591B050
:104BD0000F460546002606E025280AD0149A1399A8
:104BE00090476D1C761C28780028F5D1304615B00A
:104BF000F0BD002400940121F34A029400E0044334
:104C00006D1C2B780846203B98401042F7D128783D
:104C10002A280ED0022128780246303A092A15D8CF
:104C2000009A0A235A43303A80180C436D1C0090B6
:104C3000F1E701CF0090002805DA0120400304438A
:104C4000009840420090022004436D1C28782E28D2
:104C500015D10420044368786D1C2A280AD101CF9D
:104C60006D1C02900BE002990A2251433039401822
:104C70006D1C02902878014630390929F3D928782B
:104C80006C2810D006DC4C281AD068280ED06A2870
:104C900017D104E0742813D07A2812D110E0012033
:104CA000400504430CE00121090501E00321090549
:104CB0000C436978814203D10120000524186D1C42
:104CC0006D1C287803906E281ED00CDC632831D030
:104CD00004DC00288AD0582811D1B2E064287BD0A7
:104CE00069280CD178E073282DD004DC6F2870D0AF
:104CF000702804D1A7E075286CD078286BD0149A5E
:104D000013999047761C62E06002400F022807D09A
:104D100003280AD0042838680AD006603F1D56E0F0
:104D20003868F11706604160F8E738680680F5E7F3
:104D30000670F3E73878694608740020487404A8C0
:104D40000390012003E0386803900020C0433F1D1A
:104D500061070FD5002101E00199491C029A0191D8
:104D6000914213DA8142F7DB019A0399895C0029A9
:104D7000F2D10BE0002101E00199491C019181422F
:104D8000FADB019A0399895C0029F5D10199009811
:104D9000139A401A00902146149B00F03BF90199A8
:104DA0008019461807E0039803990078491C03917D
:104DB000149A139990470198401E0190401CF2D11B
:104DC0002146149B139A009800F014F986196D1C63
:104DD00009E741E033E034E00A2000210490059126
:104DE0006002410F022905D001CFC2179446032962
:104DF00005D007E0FF1DFF08FF0003CF06E000B26B
:104E0000C2179446042902D140B2C1178C46002231
:104E10006146944506DA0A460021404291418C469B
:104E20002D2102E0210504D52B216A4611760121AE
:104E300003E0E10701D02021F7E7019154E00A20C7
:104E40000BE0102009E0102004900021042004430E
:104E500008200591029003E00820002105910490AC
:104E60006002410F022905D001CF00229446032998
:104E700006D006E0FF1DFF08FF0003CF8C4603E0CD
:104E800080B2042900D1C0B20021019121072BD5A5
:104E90000399702906D0049A1021059B4A401A43B1
:104EA00005D00EE040216A461176012108E06146F6
:104EB000014306D030216A461176039951760221CA
:104EC0000191049A0821059B4A401A430CD161467E
:104ED000014301D1610707D530216A4611760121CE
:104EE00001910299491E02910399582904D037A1D2
:104EF00003910FA90F910DE039A1F9E76146059BD8
:104F0000049AFFF74BF9039B8C469B5C0F9A521E49
:104F10000F92137061460143F0D10F9807A9081A48
:104F200020300390600704D50120000484430298D8
:104F300001E0012002900399884201DD401A00E05F
:104F4000002041180290019809180098401A00901A
:104F5000E00306D42146149B139A009800F05AF8F7
:104F600086190020049008E006A9085C149A139999
:104F700090470498401C761C049001998842F3DB0A
:104F8000E0030CD52146149B139A009800F042F8D8
:104F9000861904E0149A302013999047761C0299E0
:104FA000481E02900029F5DC08E00F980F99007860
:104FB000491C0F91149A13999047761C0399481E27
:104FC00003900029F1DCFBE609280100303132337F
:104FD0003435363738396162636465660000000035
:104FE000303132333435363738394142434445461F
:104FF00000000000F8B5044600251E461746880448
:1050000004D405E039462020B0476D1C641EF9D554
:105010002846F8BDFFB50446002581B01E46C803EA
:1050200001D5302700E02027880404D505E0384664
:105030000399B0476D1C641EF9D5284605B0F0BD34
:1050400010B50446FFF700FB204610BDFFF79CFAA1
:10505000FFF732FCFFF726FAFFF76CFBFEE70000D4
:1050600010B50121054809030160C91001600C2039
:10507000FFF7CFFA0248FFF7CCFA10BD80E100E05D
:105080000300000410B50446016810A0FFF77EFD80
:1050900011A06168FFF77AFD12A0A168FFF776FD05
:1050A00013A0E168FFF772FD14A02169FFF76EFD00
:1050B00015A06169FFF76AFD16A0A169FFF766FDFB
:1050C00017A0E169FFF762FD10BD000072302020DB
:1050D0003D20307825780A00723120203D2030783C
:1050E00025780A00723220203D20307825780A0089
:1050F000723320203D20307825780A00723132202A
:105100003D20307825780A006C7220203D203078D0
:1051100025780A00706320203D20307825780A0029
:10512000707372203D20307825780A00024841686B
:10513000491C416070470000100000200048E80151
:105140000080000000D8B80500960000006CDC026A
:105150000000000000000000006CDC020000000005
:1051600004000000080000000C0000000000000027
:10517000000000000000000010000000000000001F
:10518000040000000800000000000000040000000F
:10519000080000000048E801008000000000000056
:1051A0000000000000000000009600000000000069
:1051B000006CDC020048E8010000000000800000F4
:1051C000006CDC0200000000009600000048E801CE
:1051D0000000000000800000006CDC020000000005
:1051E000009600000048E801000000000080000078
:1051F000006CDC020000000000960000636F6D7020
:105200006172655F627566666572004A756D705F92
:10521000546F5F426F6F744C6F6164657200544DE0
:1052200052315F49525148616E646C6572000000F2
:1052300050520000000000201C000000AC4B000099
:105240006C5200001C00002004020000BC4B000057
:1052500000D8B8056000000000D8B80500000000C4
:0C52600000000000000000000000000042
:04000005000040F1C6
:00000001FF
